:1000000000EE34F0C40EF66E040EF76E0900F5CF64
:10001000EEFF00EE00F010EE34F031EC00F004EEF4
:1000200000F011EE08F031EC00F005EE20F010EEDB
:1000300008F031EC00F005EE30F010EE03F031EC9A
:1000400000F005EE70F010EE03F031EC00F00FEE72
:1000500070F010EE0FF031EC00F0000EF86EE8EFEB
:100060000FF0EE6AE550E150FCE1E250FAE11200D7
:100070000900F5CFEEFFE550E150FAE1E250F8E17A
:0200800012006C
:100400000034034D006900630072006F00630068F0
:100410000069007000200054006500630068006EF1
:10042000006F006C006F0067007900200049006ECB
:100430000063002E002A034D004900430052004F84
:100440000045004D004200450044004500440020A6
:1004500000550053004200200049004F00200009D1
:10046000022900010100C03209040000020300005B
:1004700000092111010001221D0007058103400030
:1004800001070501034000010600FF0901A1011950
:10049000012940150026FF007508954081001901CB
:1004A00029409100C01201000200000008D8044257
:1004B00000020001020001BD040104350404030927
:1004C000045F0400010065EF02F01D666AEF02F0B0
:1004D0006CEF02F096EF02F0000E6D6E0101016FFD
:1004E000000E696E010101510101016F160E6F6E60
:1004F000010101510101016F9F0E6B6E010101515C
:100500000101016F7B0E696E0101015189EF02F05B
:100510006D866DA68EEF02F090EF02F088EF02F08C
:100520000101016F010E1D6E010101511D04D8A4CE
:100530009CEF02F09EEF02F0B5EF02F06DBAA3EF70
:1005400002F0A5EF02F0B5EF02F0000E686E0101B7
:10055000016F000E696E0101015169806988010116
:10056000016F020E1D6E0101015168A4BAEF02F085
:10057000BCEF02F0C6EF02F069A4C1EF02F0C3EFD6
:1005800002F0C6EF02F0689485EC0FF06DA2CBEF9D
:1005900002F0CDEF02F0D0EF02F0A19AD0EF03F01D
:1005A00068A0D5EF02F0D7EF02F0FCEF02F069A0EF
:1005B000DCEF02F0DEEF02F0FCEF02F0AAEC08F054
:1005C0000101016F040E1D6E010101510501000EB4
:1005D00004010401026F0501050E0401036F080EFA
:1005E00004010401016F000E04010401006F8C0E70
:1005F000040104010013689068A801EF03F003EF01
:1006000003F00DEF03F069A808EF03F00AEF03F021
:100610000DEF03F0CDEC0FF0689868AC12EF03F02B
:1006200014EF03F033EF03F069AC19EF03F01BEFA5
:1006300003F033EF03F0010E010101010C6F000E16
:1006400001010D6F000E010101010A6F000E010191
:100650000B6F730E01010101086F000E0101096F9C
:100660009BEC0DF0689C68AA38EF03F03AEF03F0BA
:1006700043EF03F069AA3FEF03F041EF03F043EFCC
:1006800003F05DEC0FF068A248EF03F04AEF03F0CF
:100690006AEF03F069A24FEF03F051EF03F06AEF46
:1006A00003F0010E010101010C6F000E01010D6F3D
:1006B000000E010101010A6F000E01010B6FFF0E18
:1006C00001010101086F7F0E0101096F9BEC0DF024
:1006D000000E6A6E040E1D6070EF03F072EF03F0FF
:1006E00075EF03F0A19AD0EF03F069A67AEF03F05B
:1006F0007CEF03F0CFEF03F00101016F000E010169
:100700000101006F01010151030E010101010065AA
:100710008CEF03F08EEF03F090EF03F0CFEF03F0D8
:1007200068A695EF03F097EF03F0C0EF03F06CCFEE
:100730001CF068961C50780BD8A4A1EF03F0A3EF2F
:1007400003F0A7EF03F009EC08F0BEEF03F0000E92
:10075000010101010C6F000E01010D6F1C0E010162
:1007600001010A6F000E01010B6F720E0101010100
:10077000086F000E0101096F9BEC0DF0C2EF03F052
:10078000CFEF03F001010101002B030E0101010174
:100790000065CDEF03F0CFEF03F090EF03F0A19AE7
:1007A00012006D9803BED7EF03F0D9EF03F032EFDC
:1007B00004F009AEDEEF03F0E0EF03F010EF04F019
:1007C0000101066F020E246E01010651010E0F2475
:1007D000E96E000E1020EA6E000EEF6E0FC0E9FF0A
:1007E00010C0EAFFC80EEF6E010E1324E96E000E72
:1007F0001420EA6E080EEF6E020E1324E96E000E4E
:100800001420EA6E0501200EEE6E0501050EED6E58
:1008100013C0E9FF14C0EAFFC80EEF6E30EF04F01A
:10082000010E1324E96E000E1420EA6E080EEF6E1E
:10083000020E1324E96E000E1420EA6E0501000E6C
:10084000EE6E0501050EED6E13C0E9FF14C0EAFF60
:100850008C0EEF6E0FC0E9FF10C0EAFF840EEF6E42
:10086000E3EF04F009BE37EF04F039EF04F0E3EFF3
:1008700004F00501050100AF40EF04F042EF04F081
:10088000B5EF04F000EE04F0050115EE06F0E652B7
:10089000EE52ED50E55C02E1EF50E75CD8B053EF6B
:1008A00004F055EF04F059EF04F006C504F007C555
:1008B00005F047EC07F00101066F010E246E0101FF
:1008C0000651010E1324E96E000E1420EA6E080E84
:1008D000EF6E020E1324E96E000E1420EA6E05017D
:1008E000000EEE6E0501050EED6E13C0E9FF14C09B
:1008F000EAFF800EEF6E0101066F000E276E010108
:100900000651010E1524E96E000E1620EA6E080E3F
:10091000EF6E020E1524E96E000E1620EA6E050138
:10092000000EEE6E0501050EED6E15C0E9FF16C056
:10093000EAFF840EEF6E0101066F010E276E0101C2
:100940000651020E0F24E96E000E1020EA6E05011A
:10095000200EEE6E0501050EED6E0FC0E9FF10C012
:10096000EAFFC80EEF6EE3EF04F00101066F020E1E
:10097000246E01010651010E0F24E96E000E1020B5
:10098000EA6E000EEF6E0FC0E9FF10C0EAFFC80E5E
:10099000EF6E010E1324E96E000E1420EA6E080EAD
:1009A000EF6E020E1324E96E000E1420EA6E0501AC
:1009B000200EEE6E0501050EED6E13C0E9FF14C0AA
:1009C000EAFFC80EEF6E1200050105010205D8A46A
:1009D000ECEF04F0EEEF04F013EF05F00501005129
:1009E0001F0B0009D8A4F7EF04F0F9EF04F013EFA0
:1009F00005F0038E050105010151030AD8A403EF98
:100A000005F005EF05F00DEF05F001010B6F010E8C
:100A1000286E01010B5113EF05F001010B6F000E61
:100A2000286E01010B510501050102671AEF05F05F
:100A30001CEF05F0BCEF05F0050100511F0B020A89
:100A4000D8A425EF05F027EF05F0BCEF05F0050170
:100A500004510F0B0009D8B430EF05F032EF05F068
:100A6000BCEF05F0038E0501050104BF3AEF05F068
:100A70003CEF05F04EEF05F0050104510F0B020DA0
:100A8000170EF324E96EEA6A000EEA220101EECFA6
:100A900009F10101EDCF0AF15EEF05F00501045106
:100AA0000F0B020D0F0EF324E96EEA6A000EEA2224
:100AB0000101EECF09F10101EDCF0AF105010501B8
:100AC0000151030AD8A467EF05F069EF05F071EF53
:100AD00005F009C1E9FF0AC1EAFF840EEF6EBCEF21
:100AE00005F0050104510F0B01010B6F700E0101A0
:100AF0000C6F0F0E0D6F01010B5101010C27E86AFD
:100B000001010BBFE86801010D230CC107F10DC104
:100B100008F107C1E9FF08C1EAFFFE0EEE16FF0E5D
:100B2000ED160501050104AF98EF05F09AEF05F009
:100B3000ACEF05F009C1E9FF0AC1EAFF000EEF6E54
:100B4000040E01010101091B09C1E9FF0AC1EAFF05
:100B5000400EEF6EBCEF05F009C1E9FF0AC1EAFFE4
:100B6000880EEF6E040E01010101091B09C1E9FFA6
:100B70000AC1EAFFC80EEF6E1200050100511F0BFB
:100B80000101106F01011005D8B4C9EF05F0CBEFDA
:100B900005F0CDEF05F083EF06F0050105010451E6
:100BA000D8B4D5EF05F0D7EF05F0D9EF05F083EF16
:100BB00006F0050105010151060AD8A4E2EF05F08F
:100BC000E4EF05F029EF06F01EEF06F01B04D8A4B1
:100BD000ECEF05F0EEEF05F0FCEF05F0710E006EA6
:100BE000040E016E090E046E000E056E0101106FF9
:100BF000C00E036E0101105129EF06F01B04D8A4AA
:100C000004EF06F006EF06F0FCEF05F0880E006E2C
:100C1000040E016E1D0E046E000E056E0101106FB4
:100C2000C00E036E0101105129EF06F00101106F93
:100C3000800E036E0101105129EF06F00501050138
:100C40000351210AC3E0030AD9E0010AEFE029EFCA
:100C500006F005010039E832030B0101106F0101B4
:100C60001005D8B436EF06F038EF06F03AEF06F08C
:100C700083EF06F072EF06F083EF06F0260E006EAB
:100C8000000E016E010E046E000E056E0101106F64
:100C9000C10E036E0101105183EF06F00101106FC8
:100CA000800E036E0101105103C526F083EF06F09C
:100CB000250E006E000E016E010E046E000E056E14
:100CC0000101106F810E036E0101105183EF06F0D8
:100CD0000101106F800E036E0101105102C525F055
:100CE00083EF06F0050105010151010AC5E0030A81
:100CF000C5E0010ADDE00A0ABFE0030ACFE0010A0D
:100D0000E7E083EF06F01200010E1524E96E000EF5
:100D10001620EA6EEF5001010101066F0101010189
:100D200006510A5C000E0B58D8B099EF06F09BEF05
:100D300006F09FEF06F00AC006F1A8EF06F00101E9
:100D4000010106510A5C0A6E0B50D8A00B040B6E11
:100D50000101086F000E01010101076F0101085137
:100D6000C7EF06F00501200E010101010725E96E1C
:100D7000EA6A0501050EEA2206C0E1FF07C0E2FFAC
:100D8000EFCFE7FF064A072A01010101072B010106
:100D90000101065101010101075DD8A0D2EF06F063
:100DA000D4EF06F0B2EF06F00B500A10D8B4DBEF28
:100DB00006F0DDEF06F010EF07F0010E1324E96EE8
:100DC000000E1420EA6E080EEF6E020E1324E96E78
:100DD000000E1420EA6E0501200EEE6E0501050ED0
:100DE000ED6E15C0E9FF16C0EAFFEF500101086F74
:100DF000010108BDFEEF06F000EF07F008EF07F075
:100E000013C0E9FF14C0EAFFC80EEF6E0EEF07F043
:100E100013C0E9FF14C0EAFF880EEF6E46EF07F03B
:100E2000010E1324E96E000E1420EA6E080EEF6E18
:100E3000020E1324E96E000E1420EA6E0501000E66
:100E4000EE6E0501050EED6E13C0E9FF14C0EAFF5A
:100E5000840EEF6E00EE0CF0EE50EE10ED10D8B4F4
:100E600034EF07F036EF07F045EF07F000EE0CF037
:100E700002D845EF07F00500FA6EEE50FD6EEE5019
:100E8000FE6EEE50FF6EFA501200099E1200080E20
:100E9000045C000E0558D8B050EF07F052EF07F091
:100EA00075EF07F004C007F105C008F123665BEF9A
:100EB00007F05DEF07F065EF07F00101096F010E24
:100EC000236E0101095173EF07F02304D8A46BEFDF
:100ED00007F06DEF07F073EF07F00101096F020EE5
:100EE000236E010109517CEF07F0080E0101010199
:100EF000076F000E0101086F0FC0E9FF10C0EAFF85
:100F0000FD0EEF160FC0E9FF10C0EAFFFE0EEF1650
:100F10000FC0E9FF10C0EAFF010101010851EF1203
:100F2000010E0F24E96E000E1020EA6E010107C1C8
:100F3000EFFF010101010751045C046E0101010191
:100F400008510558056E0501200E1E6E0501050E9F
:100F50001F6E03B0AEEF07F0B0EF07F0DDEF07F064
:100F6000D0EF07F000C0F6FF01C0F7FFF86A1EC01F
:100F7000E1FF1FC0E2FF030EF76403D00800F55045
:100F800005D0F6CFE9FFF7CFEAFFEF50E76E004A52
:100F9000012A1E4A1F2A010101010707D8A00807DC
:100FA0000101010108510711D8A4D9EF07F0DBEFC7
:100FB00007F0B2EF07F008EF08F0FDEF07F000C010
:100FC000F6FF01C0F7FFF86A1EC0E1FF1FC0E2FF95
:100FD000030EF76403D00800F55005D0F6CFE9FF03
:100FE000F7CFEAFFEF50E76E004A012A1E4A1F2A98
:100FF000010101010707D8A00807010101010851FB
:101000000711D8A406EF08F008EF08F0DFEF07F0AB
:1010100012001C50FD0BD8A410EF08F012EF08F0DE
:101020009DEF08F01CC003F17E0E010103170101C2
:10103000D8900331040D0401000EF324156E166AD6
:101040000401040E162215C013F016C014F0040E8D
:10105000131A15C0E9FF16C0EAFFEF30E8320F0B94
:101060000D0AD8A436EF08F038EF08F099EF08F031
:10107000200E0101036F050E046F020E1524E96EA8
:10108000000E1620EA6E0101EE520451ED1803C164
:10109000E8FFD8B4EF18D8A450EF08F052EF08F0EA
:1010A00095EF08F0020E1524E96E000E1620EA6E88
:1010B0000501000EEE6E0501050EED6E0101036FD8
:1010C000000E01010101026F01010351070E010130
:1010D000010102656EEF08F070EF08F072EF08F0A2
:1010E00095EF08F00501200E010101010225E96ECE
:1010F000EA6A0501050EEA220501000E010101015F
:101100000225E16EE26A0501050EE222EFCFE7FF5C
:1011100001010101022B070E01010101026593EF9C
:1011200008F095EF08F072EF08F0EAEC0DF09BEF95
:1011300008F0ECEC0EF0A9EF08F01C50FD0B040ACF
:10114000D8A4A5EF08F0A7EF08F0A9EF08F064EC29
:101150000CF01200000E6A6E000E686E0101036F43
:10116000160E6F6E010103510101036F9F0E6B6E2E
:10117000010103510101036F7B0E696E01010351EF
:101180006D8C0101036F000E6E6E01010351000EA4
:10119000010101010C6F000E01010D6F000E010134
:1011A00001010A6F000E01010B6F710E01010101B7
:1011B000086F0F0E0101096FA9EC0FF06D9C010182
:1011C000036F000E01010101026F01010351070EBF
:1011D000010101010265EFEF08F0F1EF08F0F3EF14
:1011E00008F016EF09F0010101010251040D04019C
:1011F000000EF324E96EEA6A0401040EEA22000EEE
:10120000EE6E000EEE6E000EEE6E000EED6EED5206
:10121000ED5201010101022B070E010101010265DE
:1012200014EF09F016EF09F0F3EF08F0160E706EE8
:101230001BEF09F0689668B620EF09F022EF09F07D
:101240001AEF09F00101036F000E036E0101035153
:101250000101036F000E096E01010351000E0A6EB9
:10126000000E0B6E6D980401080E0F6E0401040E43
:10127000106E0101036F000E1B6E0101035101018D
:10128000036F000E1D6E01010351120005010501DF
:101290000051800AD8A44FEF09F051EF09F0DFEFB9
:1012A00009F00101076FC00E036E01010751D4EF71
:1012B00009F0A50E006E040E016E120E046E000EF3
:1012C000056EDFEF09F0050105010251020DC10EA7
:1012D000F324F66EF76A040EF7220900F5CF00F04A
:1012E0000A00F5CF01F0020E00240101076F000E85
:1012F00001200101086F07C1F6FF08C1F7FFF86A76
:10130000030EF76407D00900F5CF04F00900F5CF0C
:1013100005F008D0F6CFE9FFF7CFEAFFEECF04F0F3
:10132000EECF05F0DFEF09F0030E050105010261C4
:101330009CEF09F09EEF09F0C4EF09F005010501EB
:101340000251020DB70EF324F66EF76A040EF7226F
:101350000900F5CF00F00A00F5CF01F00050F66E5D
:10136000E96E030EEA6E0150EA6403D0EA6EEF50B4
:1013700003D0F76E0800F5500101076F0101075116
:10138000046E056ACAEF09F00101076F000E036ED3
:1013900001010751DFEF09F00101076F000E036E35
:1013A00001010751DFEF09F0050105010351010AB1
:1013B00080E0030A88E0010AB7E0CCEF09F01200F0
:1013C00005010039E832030B0009D8B4EAEF09F04F
:1013D000ECEF09F0EEEF09F06DEF0AF052EF0AF0D2
:1013E000038E0101066F080E1D6E010106516DEF9F
:1013F0000AF046EC09F06DEF0AF03DEC0DF06DEFF0
:101400000AF01B0E006E000E016E03800101066FD4
:10141000010E046E01010651038E6DEF0AF0EEEC31
:101420000AF06DEF0AF0E4EC04F06DEF0AF0220E22
:10143000050105010425006E016A000E01220380EA
:101440000101066F010E046E01010651038E6DEF5E
:101450000AF0038E220E050105010425E96EEA6AF1
:10146000000EEA22050102C5EFFF6DEF0AF0000E43
:10147000010101010C6F000E01010D6F000E010151
:1014800001010A6F000E01010B6F020E0101010143
:10149000086F000E0101096F9BEC0DF06DEF0AF073
:1014A0006DEF0AF0050105010151000AB8E0010ADB
:1014B000BAE0020AB8E0060A93E0030A9AE0010AD9
:1014C000D6E00F0A9EE0010A98E0030AB0E0010AA4
:1014D000C0E0070AE5E050EF0AF012000101010147
:1014E0001451D8B476EF0AF078EF0AF08AEF0AF0D8
:1014F000010101011351020D0F0EF324E96EEA6A96
:10150000000EEA220101EECF18F10101EDCF19F131
:101510009AEF0AF0010101011351020D170EF32495
:10152000E96EEA6A000EEA220101EECF18F101012C
:10153000EDCF19F1020E010101011825E96E000E2F
:10154000010101011921EA6E010115C1EEFF01013E
:1015500016C1EDFF010E010101011825E96E000E13
:10156000010101011921EA6E010117C1EFFF18C144
:10157000E9FF19C1EAFF400EEF1618C1E9FF19C1D2
:10158000EAFF880EEF12010101011451D8B4CBEF2C
:101590000AF0CDEF0AF0DBEF0AF00101010113516F
:1015A000020D0F0EF324E96EEA6A000EEA22040E21
:1015B000EF1AE7EF0AF0010101011351020D170EB6
:1015C000F324E96EEA6A000EEA22040EEF1A18C14B
:1015D00013F119C114F1EDEF0AF01200000E05012C
:1015E0000501206F000E05010501216F4DEF0BF085
:1015F000038E0501050120812804D8A402EF0BF019
:1016000004EF0BF007EF0BF005010501208358EF05
:101610000BF0038E58EF0BF0038E0501050104BF9C
:1016200014EF0BF016EF0BF028EF0BF0050104514F
:101630000F0B020D170EF324E96EEA6A000EEA2280
:101640000101EECF07F10101EDCF08F138EF0BF00A
:10165000050104510F0B020D0F0EF324E96EEA6A27
:10166000000EEA220101EECF07F10101EDCF08F1F2
:1016700007C1E9FF08C1EAFFEF500101096F01014D
:1016800009A545EF0BF047EF0BF007EF0BF0010E4C
:1016900005010501206F58EF0BF0050100511F0BEC
:1016A000000AA6E0010AB5E0030AB6E058EF0BF025
:1016B00003AE5DEF0BF05FEF0BF06CEF0BF005018D
:1016C000200E006E0501050E016E03800101096FF9
:1016D000020E046E0101095112001F0E1D6473EF0A
:1016E0000BF075EF0BF07CEF0BF06DA27AEF0BF0C7
:1016F0007CEF0BF07EEF0BF0EAEF0BF020C0E9FF80
:1017000021C0EAFFEF34E836010B0101026F01014D
:10171000025101010101006F0101016B21502010F4
:10172000D8A495EF0BF097EF0BF09EEF0BF0000EA7
:1017300001010101006F000E0101016F01010101B2
:1017400001510011D8A4A7EF0BF0A9EF0BF0EAEFBD
:101750000BF0040104018029D8A4B1EF0BF0B3EF22
:101760000BF0C1EF0BF081C483FF82C4BEFF010107
:10177000026F000E04010401806F01010251C3EFEA
:101780000BF0000E836E0101026F400E010101019A
:10179000176F010102510401800E01010101156F53
:1017A0000401040E0101166F0101036F000E010117
:1017B0000101146F010103510101046F010E0101C8
:1017C0000101136F010104516EEC0AF013C120F006
:1017D00014C121F012000401000E010101011C6F6F
:1017E0000401040E01011D6F010101011A51020DD6
:1017F000F3CF1EF1010101011951040DF350010154
:101800001E2501011F6F0101D8901F370101D890DB
:101810001F35010101011B6F010101011B41E8425C
:101820003F0B010101011B6F010101011B51040D5F
:10183000F350010101011C27000E010101011D23CC
:101840001CC1E9FF1DC1EAFF7F0EEF160101010176
:101850001A672DEF0CF02FEF0CF041EF0CF00101A7
:1018600001011951020D170EF324E96EEA6A000E08
:10187000EA2201011CC1EEFF01011DC1EDFF51EF84
:101880000CF0010101011951020D0F0EF324E96E54
:10189000EA6A000EEA2201011CC1EEFF01011DC12E
:1018A000EDFF1CC1E9FF1DC1EAFFBF0EEF16040EDC
:1018B000010101011C25E96E000E010101011D213C
:1018C000EA6E400EEF1212000FC0E9FF10C0EAFFEF
:1018D000EF38E832E832010B01010101056F040E17
:1018E0000F1A1D50080AD8A478EF0CF07AEF0CF00C
:1018F00092EF0CF002C56EFF6E50D8B482EF0CF080
:1019000084EF0CF08CEF0CF00101066F100E1D6ED1
:101910000101065192EF0CF00101066F040E1D6EDD
:10192000010106512404D8A498EF0CF09AEF0CF0B2
:10193000D2EF0CF0020E0F24E96E000E1020EA6EBA
:101940000501200EEE6E0501050EED6E47EC07F069
:101950002350020AD8A4AFEF0CF0B1EF0CF0B9EFAE
:101960000CF00FC0E9FF10C0EAFF840EEF6ED0EF5D
:101970000CF0010101010567C0EF0CF0C2EF0CF0A3
:10198000CAEF0CF00FC0E9FF10C0EAFFC80EEF6EFF
:10199000D0EF0CF00FC0E9FF10C0EAFF880EEF6E29
:1019A000D4EF0CF074EC0EF01200000E01010101F6
:1019B000256F000E0101266F010101012351221143
:1019C000D8B4E5EF0CF0E7EF0CF036EF0DF00101C5
:1019D000276F010E01010101246F01012751FAEF68
:1019E0000CF00101D89001012237010123370101D8
:1019F0000101242B0101010123AF01EF0DF003EFE1
:101A00000DF0F1EF0CF00101D89001012537010133
:101A1000263701010101225101010101205D01016F
:101A200001012351010101012159D8A01AEF0DF044
:101A30001CEF0DF02BEF0DF001010101225101010E
:101A40000101205F01010101235101010101215B1D
:101A50000101010125810101D89001012333010118
:101A6000223301010101242F03EF0DF025C120F1E4
:101A700026C121F13CEF0DF01200038E000E010192
:101A800001010C6F000E01010D6F000E010101013B
:101A90000A6F000E01010B6F710E01010101086F49
:101AA0000F0E0101096FA9EC0FF0010E01010101F8
:101AB0000C6F000E01010D6F000E010101010A6F94
:101AC000000E01010B6F220E01010101086F000ED3
:101AD0000101096FA9EC0FF002C51BF01B6673EF43
:101AE0000DF075EF0DF07DEF0DF00101076F100E99
:101AF0001D6E010107519AEF0DF00101076F200ED5
:101B00001D6E01010751010E010101010C6F000E54
:101B100001010D6F1B0E010101010A6F000E010191
:101B20000B6F010E01010101086F000E0101096F29
:101B30009BEC0DF01200BEEF0DF0B2EC0EF0E7EFF3
:101B40000DF0F9EC0FF0E7EF0DF0F2EC0FF0E7EF2E
:101B50000DF0F8EC0FF0E7EF0DF0F5EC0FF0E7EF1C
:101B60000DF0F7EC0FF0E7EF0DF0F6EC0FF0E7EF0C
:101B70000DF000F0E7EF0DF0E7EF0DF0010108C107
:101B80000EF1010109C10FF10101DFEF0DF00101BB
:101B90000E51010AD2E0030AD4E0010AD6E0710A2C
:101BA000E8E0010AD6E0070ADCE0010AD6E0BCEF73
:101BB0000DF001010E51FF0AD8E0BCEF0DF001015C
:101BC0000F51000AE4E07F0AF4E0BCEF0DF0E9EF0A
:101BD0000DF012000FC0E9FF10C0EAFFEF50010145
:101BE000056F010105AFF7EF0DF0F9EF0DF0FFEF15
:101BF0000DF00FC0E9FF10C0EAFF000EEF6E01010B
:101C0000056F000E236E010105510101056F000EE5
:101C1000246E01010551000E046E000E056E0101D7
:101C2000056F000E036E01010551E0EC09F0000E96
:101C3000010101010C6F000E01010D6F000E010189
:101C400001010A6F000E01010B6F030E010101017A
:101C5000086F000E0101096F9BEC0DF0D1EC03F051
:101C60001200700E0101176F0F0E186F01010101B4
:101C7000135101011727000E0101182317C115F197
:101C800018C116F115C1E9FF16C1EAFF010114C11F
:101C9000EFFF0101010114A550EF0EF052EF0EF01D
:101CA0005EEF0EF00101176F000E010101011A6FC6
:101CB0000101175113C119F1EBEC0BF00101010106
:101CC00014A365EF0EF067EF0EF073EF0EF0010155
:101CD000176F010E010101011A6F0101175113C1A4
:101CE00019F1EBEC0BF012000101096F000E246EEC
:101CF000010109510FC0E9FF10C0EAFF000EEF6EAD
:101D0000040E0F1801010101076F10500101086F47
:101D100007C1E9FF08C1EAFF000EEF6E09AE93EFBD
:101D20000EF095EF0EF0B1EF0EF000EE0CF0EE506D
:101D3000EE10ED10D8B49FEF0EF0A1EF0EF0B0EF63
:101D40000EF000EE0CF002D8B0EF0EF00500FA6EC7
:101D5000EE50FD6EEE50FE6EEE50FF6EFA50120029
:101D6000099E12000101106F1E0E01010101146F86
:101D7000010110510101116F010E01010101136FE9
:101D80000101115131EC0EF00101106F400E010103
:101D90000101176F010110510401800E01010101C1
:101DA000156F0401040E0101166F0101116F000E81
:101DB00001010101146F010111510101126F010EA6
:101DC00001010101136F010112516EEC0AF013C100
:101DD00020F014C121F012002450020AD8A4F3EF1D
:101DE0000EF0F5EF0EF0F9EF0EF084EC06F024EFB4
:101DF0000FF074EC0EF0276600EF0FF002EF0FF01B
:101E00001EEF0FF0010E1324E96E000E1420EA6E8F
:101E1000080EEF6E020E1324E96E000E1420EA6E17
:101E20000501000EEE6E0501050EED6E13C0E9FF13
:101E300014C0EAFF8C0EEF6E24EF0FF00101056F66
:101E4000000E276E0101055112000101006F0F0EF7
:101E5000C16E01010051000ED36EFE0E936E000E96
:101E6000956E000E816E000E836E6D866F846F8896
:101E70006F866D92D08EF28EF28C0C0EBD6E0C0EB3
:101E8000BA6E0A0EBE6ECB680101006F010ECA6EFB
:101E900001010051CA849494000E206E000E216E40
:101EA000000E2B6E000E2C6E0101006F010E346EC1
:101EB00001010051AAEC08F0120070A062EF0FF0CF
:101EC00064EF0FF083EF0FF0800E15C0E9FF16C02E
:101ED000EAFFEF626EEF0FF070EF0FF082EF0FF09E
:101EE000840E0FC0E9FF10C0EAFFEF627AEF0FF037
:101EF0007CEF0FF082EF0FF015C0E9FF16C0EAFF8C
:101F00008C0EEF6E7090689A1200000E01010101B4
:101F10000C6F000E01010D6F000E010101010A6F2F
:101F2000000E01010B6F740E01010101086F000E1C
:101F30000101096F9BEC0DF06D926994A1EF0FF018
:101F4000689468B4A6EF0FF0A8EF0FF0A0EF0FF0C1
:101F5000120008C10EF109C10FF1BAEF0FF00EC166
:101F6000E9FF0FC1EAFF01010AC1EFFF0101010111
:101F70000E4B0F2B010101010C07D8A00D07010129
:101F80000C29D8B40D29D8A4C8EF0FF0CAEF0FF070
:101F9000AFEF0FF0CCEF0FF01200698468986D82FC
:101FA000000E010101010C6F000E01010D6F000E0A
:101FB000010101010A6F000E01010B6F750E010195
:101FC0000101086F000E0101096F9BEC0DF012007A
:101FD00025EC0FF063EC02F06DEC0BF0EAEF0FF084
:101FE00000EF00F0BDEC05F012001200120012002C
:041FF00012001200C9
:020000040030CA
:0E000000E43EFFFEFFF19BFFFFFFFFFFFFFF4F
:00000001FF
